:020000040800F2
:10000000802500204501000899080008F107000834
:10001000950800085D030008D525000800000000D1
:10002000000000000000000000000000591F000850
:10003000F103000800000000B70100085921000882
:100040005F0100085F0100085F0100085F01000810
:100050005F0100085F0100085F0100085F01000800
:100060005F0100085F0100085F0100085F010008F0
:100070005F0100085F0100085F0100085F010008E0
:100080005F0100085F0100085F0100085F010008D0
:100090005F0100085F0100085F0100085F010008C0
:1000A0005F0100085F0100085F0100085F010008B0
:1000B0005F0100085F0100085F0100085F010008A0
:1000C0005F0100085F0100085F0100085F01000890
:1000D0005F0100085F0100085F0100085F01000880
:1000E000F50300085F0100085F0100085F010008D8
:1000F0005F0100085F0100085F0100085F01000860
:100100005F0100085F0100085F0100085F0100084F
:100110005F0100085F0100085F0100083D22000840
:100120005F0100085F0100085F0100085F0100082F
:10013000DFF80CD000F0B2F8004800473D2B000873
:10014000802500200648804706480047FEE7FEE776
:10015000FEE7FEE7FEE7FEE7FEE7FEE7FEE7FEE777
:100160007521000831010008EFF3108072B6704766
:1001700080F310887047204C204D25604FF000041C
:1001800084F309881E4C4FF0010525701D4C4FF07B
:100190008055256062B6FEE730B41A4C4FF08055AA
:1001A000256030BC704730B4164C4FF08055256048
:1001B00030BC704700BF72B6EFF3098028B1203819
:1001C00080E8F00F10490968086000B50F488047C3
:1001D0005DF804EB0E480F490A7802700A480E4990
:1001E0000A680260106890E8F00F203080F30988F8
:1001F0004EF0040E62B6704720ED00E00000FFFFF5
:10020000D608002004ED00E0DC08002009130008F7
:10021000CB080020CC080020E408002010B5002204
:1002200000E0521C835C8C5CA34201D1002BF8D10E
:10023000D8B2E1B2401A10BD2DE9F05F05460020AA
:1002400092469B4688460646814640241BE0284647
:1002500041464746224600F042F853465A46C01AE5
:10026000914110D311461846224600F029F82D1A64
:1002700067EB01084F4622460120002100F020F8DC
:1002800017EB00094E41201EA4F10104DFDC4846B3
:1002900031462A464346BDE8F09F0000064C074D14
:1002A00006E0E06840F0010394E807009847103446
:1002B000AC42F6D3FFF740FF343500085435000850
:1002C000202A04DB203A00FA02F100207047914016
:1002D000C2F1200320FA03F3194390407047202A0B
:1002E00004DB203A21FA02F00021704721FA02F3E0
:1002F000D040C2F12002914008431946704770B5C2
:100300008D1810F8014B14F0030201D110F8012BE5
:10031000231106D110F8013B03E010F8016B01F83E
:10032000016B521EF9D1ABB110F8012B04F00C0493
:100330008A1A0C2C03D0A2EB84129B1C08E010F844
:10034000014BA2EB0422F8E712F8014B01F8014B34
:100350005B1EF9D5A942D4D3002070BD00BFFEE7D3
:100360001CB514A103C9CDE9000100F097FA0522DC
:100370006946302001F0D0FD05226946102001F0C9
:1003800095FD002406E01DF80400A52800D003E038
:10039000601CC4B2052CF6DB00BF052C04D007A0FE
:1003A00002F028F901201CBD0AA002F023F9002068
:1003B000F9E70000A5A5A5A5A50000004E5246320C
:1003C000344C303120636865636B206572726F72E4
:1003D000210A00004E524632344C303120636865A9
:1003E000636B207375636375737366756C210A00A4
:1003F0007047000010B5FFF7B7FE04462F4800789D
:10040000401C2E4908702046FFF7B2FE2CA002F0D7
:10041000F1F84FF4804000F061F8012821D12A481A
:10042000006841F61F4188420DD2274800683230EB
:1004300025490860098888B202F096FB224909889C
:1004400088B202F09BFB4FF48061204800F0CEF9A7
:100450004FF400611D4800F0C7F94FF4804000F0F0
:1004600037F84FF4004000F039F8012823D116483E
:10047000006840B1144800683238134908600988A0
:1004800088B202F07BFB4FF48061104800F0AEF9B7
:100490004FF400610D4800F0A7F94FF400610B48DC
:1004A00000F0A4F94FF48061084800F09DF94FF482
:1004B000004000F00DF800F017FC10BDC908002046
:1004C0004B455920696E0A000000002000080140D9
:1004D00001490860704700001404014001460020F3
:1004E0000022074B1B6803EA0102054B14331B680B
:1004F0000B4013B10AB1012000E00020704700005A
:1005000000040140002123498279002A3AD00A469A
:10051000126803689A430B461A600A1D1268036842
:100520009A430B1D1A60027911440A6803681A4342
:100530000A60184A0832126803689A43154B083358
:100540001A601A1D126803689A43124B0C331A6022
:100550004279102A0ED11A1F126803681A430D4BF4
:1005600008331A601A1D126803681A43094B0C33CA
:100570001A600DE00749427911440A6803681A437A
:100580000A6005E0027911440A6803689A430A6028
:1005900070470000000401401CB500208DF80400E5
:1005A0000C208DF805004FF48040009001208DF85C
:1005B00006006846FFF7A6FF4FF4004000900120B8
:1005C0008DF806006846FFF79DFF1CBD08B500BF0B
:1005D000012321A20321002000F0E6FA022322A237
:1005E0000421002000F0E0FA40F6B8330322002195
:1005F000084600F0C7FE00F0EFF940F6B8330222DB
:100600000021084600F0BEFEF02000F024FA00238E
:1006100003221946184600F0B5FE17480823802229
:1006200000210090084600F0DCF90023032219465F
:10063000184600F0A7FE11480823802200210090F0
:10064000084600F0CEF9002303221946184600F0B0
:1006500099FE00F0C1F9BBE757696C646669726581
:10066000205465636800000048656C6C6F207769F2
:100670006C64666972650000940400209400002098
:1006800030B500228B071C0F0F2303FA04F20B4B2B
:100690008C1053F824309343084C8D1044F82530C7
:1006A00023468C1053F824308C07240F00FA04F4EE
:1006B0002343024C8D1044F8253030BD0800014022
:1006C0002DE9F041024600250026002000230024E9
:1006D000002791F803C00CF00F0591F803C00CF04F
:1006E000100CBCF1000F03D091F802C04CEA0505D4
:1006F00091F800C0BCF1000F31D0146800202BE04D
:100700004FF0010C0CFA00F3B1F800C00CEA03063C
:100710009E4220D183004FF00F0C0CFA03F7BC432C
:1007200005FA03FC4CEA040491F803C0BCF1280F5D
:1007300006D14FF0010C0CFA00FCC2F814C00AE01C
:1007400091F803C0BCF1480F05D14FF0010C0CFA31
:1007500000FCC2F810C0401C0828D1D31460B1F8C6
:1007600000C0BCF1FF0F34DD546800202EE000F122
:10077000080C4FF0010808FA0CF3B1F800C00CEABD
:1007800003069E4221D183004FF00F0C0CFA03F7B1
:10079000BC4305FA03FC4CEA040491F803C0BCF125
:1007A000280F05D100F1080C08FA0CF8C2F81480E3
:1007B00091F803C0BCF1480F07D100F1080C4FF0CD
:1007C000010808FA0CF8C2F81080401C0828CED3A3
:1007D0005460BDE8F0810246002093680B400BB1E5
:1007E000012000E0002070474161704701617047BF
:1007F00000BFFEE710B501F0E7FE00F02BF800F0B7
:1008000047F900F04BF8FFF7ABFD10BD08B501212B
:10081000102001F069F948208DF803004FF4804062
:10082000ADF8000069460A48FFF74AFF4FF4004060
:10083000ADF8000069460648FFF742FF0E2102208E
:10084000FFF71EFF0F210220FFF71AFF08BD00006F
:100850000010014010B5FFF7D9FFFFF79DFE00F033
:1008600063F810BD70B50446002520210848FFF745
:10087000BBFF04F070040021FF2001F037FB0546A8
:1008800044EA0501272001F031FB0546284670BDEA
:100890000010014000BFFEE77047000010B51021B6
:1008A0000D48FFF7A3FF20210C48FFF79DFF2021F3
:1008B0000948FFF799FF10210848FFF797FF7020BC
:1008C000FFF7D0FF0021E22001F010FB0021E12022
:1008D00001F00CFB10BD00000008014000100140B9
:1008E00008B50121102001F0FFF803208DF8020067
:1008F00010208DF803002020ADF80000694609485B
:10090000FFF7DEFE20210748FFF770FF1020ADF84B
:10091000000004208DF8030069460248FFF7D0FE6E
:1009200008BD00000010014008B54FF4C06000F0A1
:1009300049F828208DF8000001208DF801000020E2
:100940008DF8020001208DF80300684600F002F8DF
:1009500008BD000070B5002100230F22C47804B345
:10096000154C246804F4E064C4F5E064210AC1F184
:100970000403CA40447804FA03F184781440214304
:1009800009010E4C0678A155047804F01F050124D6
:10099000AC4005786D11AD0005F1E025C5F80041CA
:1009A00009E0047804F01F050124AC40044D0678EA
:1009B000761145F8264070BD0CED00E000E400E043
:1009C00080E100E002490143024A116070470000E3
:1009D0000000FA050CED00E010B5002000F03BF837
:1009E00010BD2DE9F05F06460F4690461C46DDF827
:1009F00028A04FF0000BE11704EB5171C910A4EBD4
:100A0000C10131B92046E11704EB5171C1F3C705AB
:100A100006E02046E11704EB5171C910491CCDB224
:100A20003D4614E02946304600F0AAF8B1460AE0F7
:100A300059460BF1010B1AF8010001F0D4FD09F140
:100A4000010000F0FF09C145F2DB681CC5B2A542F8
:100A5000E8DBBDE8F09F70B50646002415E004F120
:100A6000B001C8B201F0B8FD002001F0B5FD1020C2
:100A700001F0B2FD002504E0304601F0B4FD681C31
:100A8000C5B2802DF8DB601CC4B2082CE7DB70BD5A
:100A900010B502F0B9F84FF4805038490860800072
:100AA000091F08604FF6FF7400E0641E002CFCD1A3
:100AB0004FF48040314908604FF6FF7400E0641E37
:100AC000002CFCD14FF480402C49091F0860AE2057
:100AD00001F082FD202001F07FFD102001F07CFD5F
:100AE000B02001F079FDC02001F076FDA02001F0DA
:100AF00073FD002001F070FD102001F06DFD40201D
:100B000001F06AFD812001F067FDFF2001F064FD26
:100B1000A62001F061FDA82001F05EFD3F2001F05C
:100B20005BFDA42001F058FDD32001F055FD00200D
:100B300001F052FDD52001F04FFDF02001F04CFDF9
:100B4000D92001F049FD222001F046FDDA2001F014
:100B500043FD122001F040FDDB2001F03DFD20208F
:100B600001F03AFD8D2001F037FD142001F034FD35
:100B7000AF2001F031FDFFF72FFF10BD140C014035
:100B800070B504460D4605F1B001C8B201F024FD70
:100B9000102141EA141001F01FFD04F00F0141F093
:100BA000010001F019FD70BD2DE9F04706468946A8
:100BB00017469A464FF0000800240025BAF1010FAD
:100BC00003D0BAF1020F5ED125E020E0785D203835
:100BD00000F0FF087E2E04DD002609F1010000F080
:100BE000FF0949463046FFF7CBFF002409E008EB38
:100BF0004801264A02EB4101085D01F0F4FC601C4B
:100C0000C4B2062CF3DBB01DC6B2681CC5B2785D59
:100C10000028DBD137E032E0785D203800F0FF08B3
:100C2000782E04DD002609F1010000F0FF09494695
:100C30003046FFF7A5FF002407E004EB0811144A33
:100C4000505C01F0D0FC601CC4B2082CF5DB09F14B
:100C50000100C1B23046FFF793FF002408E004EB27
:100C6000081108310A4A505C01F0BDFC601CC4B296
:100C7000082CF4DB06F10800C6B2681CC5B2785D2A
:100C80000028C9D100BF00BFBDE8F0871C2C0008B8
:100C9000442E000810B500F013F800F099FC00F0A5
:100CA000C1FC00F0E1FC00F069FC00F029FC00F060
:100CB00075FD00F019FD00F03FFD00F002F810BDD9
:100CC0007047704706480078012808D10548007829
:100CD000FF2804D203480078401C0249087070477E
:100CE000D6080020C908002010B500241A48007852
:100CF000012830D1FFF738FA04461848007820B1AF
:100D000016480078401E1549087014480078F8B954
:100D100013480078E0B900F0A3FD124812490978A1
:100D200050F82100114908600F48007810490978EF
:100D300088420DD00D480068806B401C0B49096843
:100D400088630C480068401C0A490860FFF72BFACA
:100D50002046FFF70DFA10BDD6080020C908002074
:100D6000CA08002014180020CC080020E408002045
:100D7000CB080020B008002010B50B48007890B9CF
:100D800000F06EFD094800780949087009480749D4
:100D9000097850F8210008490860084600680749AA
:100DA0000860FFF7E8F910BDD6080020CC08002045
:100DB000CB08002014180020E4080020DC080020E4
:100DC00010B50024022000F0A1FAFFF7CDF9044687
:100DD00000200B4908602046FFF7CAF9142000F0F4
:100DE00095FAFFF7C1F9044605480068054908600F
:100DF0000120054908702046FFF7BAF910BD000030
:100E0000D8080020C0080020C80800207047000053
:100E10002DE9FE4F06460F4690461C464FF000094E
:100E2000FFF7A2F981461F48007828B14846FFF72E
:100E30009FF93C20BDE8FE8F1B4850F8240060BBA2
:100E40000120194941F824004846FFF791F9002391
:100E500042463946304600F0B5F9824600200090FF
:100E600001900346024651460290204600F00EFDD6
:100E7000054635B90D48007801280CD100F0B6FCC4
:100E800009E0FFF771F981460020074941F8240085
:100E90004846FFF76DF92846CCE74846FFF768F962
:100EA0002820C7E7C908002014180020D608002011
:100EB0002DE9F04F85B081468A4693461C46DDE910
:100EC0000F78129D00200390FFF74EF903902348FE
:100ED000007830B10398FFF74BF93C2005B0BDE82E
:100EE000F08F1F4850F8240088BB01201C4941F8AE
:100EF00024000398FFF73CF92A464146384600F0A3
:100F0000D5FD2B465A465146484600F05BF9049001
:100F10001198CDE9008002953A4620460E9B04992F
:100F200000F0B4FC064636B90E48007801280CD112
:100F300000F05CFC09E0FFF717F903900020084976
:100F400041F824000398FFF713F93046C6E7FFE79E
:100F50000398FFF70DF92820C0E70000C90800201A
:100F600014180020D6080020704700002DE9F04139
:100F7000054600274748007810B14020BDE8F081C1
:100F80003F2D01D13E20F9E7FFF7EEF80746FF2D90
:100F900003D14148006890F83250404850F825404D
:100FA00024B93846FFF7E4F84320E7E7012C04D1E1
:100FB0003846FFF7DDF83D20E0E714F8340F3849F4
:100FC000085C617888432178354A505414F8340914
:100FD0001146085C30B994F83610324800788843DE
:100FE00030490870E06918B12046E16900F072FAF2
:100FF000666A16B1304600F0AFFA0020E06284F86D
:10100000300084F8310028480078FF2804D22648B0
:101010000078401C244908703846FFF7A9F800F012
:1010200058FAFFF7A1F807461F48007820B11E487C
:101030000078401E1C490870204600F041F81B480B
:101040000078401E194908700020144941F8250015
:10105000A06930B90020616988611549606908603C
:1010600005E0D4E905014861D4E90510886111481B
:10107000006860610F4804600FA0E0643846FFF725
:1010800077F80E480078012801D100F0AFFB00206E
:1010900074E70000C9080020DC08002014180020B4
:1010A000CE080020CD080020CA080020D708002064
:1010B000E8080020E00800203F000000D6080020DB
:1010C000704770472DE9F04106460F4614464FF031
:1010D00000081548007818B112202070BDE8F08192
:1010E000FFF742F88046FF2E03D11048006890F8C1
:1010F00032600F4850F826502DB94046FFF738F8B7
:1011000043202070EAE7012D05D14046FFF730F873
:1011100043202070E2E7EF644046FFF729F8002003
:10112000207000BFDAE70000C9080020DC080020BA
:1011300014180020704700002DE9F04707460D46BF
:101140004FF0000A002028606860FFF70DF8824623
:10115000FF2F03D11948006890F83270184850F8F2
:1011600027402CB95046FFF703F84320BDE8F0872D
:10117000012C04D15046FEF7FBFF4320F6E7207C0C
:1011800000F0010020B95046FEF7F2FF4520EDE7E0
:101190000026D4F80C90D4F808805046FEF7E8FFFB
:1011A00000E0761C58F8041B0029FAD0B000286033
:1011B000A9EB0600800068600020D7E7DC0800206B
:1011C0001418002070B5044610464FF08075056075
:1011D000051F28462C606FF00106051F28462E606B
:1011E0004FF01236051F28462E604FF00336051FBC
:1011F00028462E604FF00236051F28462E607610D6
:10120000051F28462E60051F284629604FF011361D
:10121000051F28462E604FF01036051F28462E6009
:101220004FF00936051F28462E604FF00836051F7F
:1012300028462E604FF00736051F28462E604FF0D7
:101240000636051F28462E604FF00536051F284636
:101250002E604FF00436051F28462E6070BD00003A
:101260002DE9F04105464FF00008FEF77DFF80466E
:10127000FF2D05D12048006890F83250012608E083
:101280001D48006890F83200A84201D1012600E014
:1012900000261A4850F825402CB94046FEF768FF52
:1012A0004820BDE8F081012C04D14046FEF760FFE4
:1012B0004320F6E794F834701148C05D94F8351077
:1012C00088430F49C8550846C05D30B994F83610B8
:1012D0000C48007888430B49087094F8300040F0BF
:1012E000080084F830004046FEF742FF012E01D18D
:1012F00000F07CFA0020D4E7DC080020141800205D
:10130000CE080020CD0800207047000070B50546CB
:1013100000261748007800B170BD1648007800B16B
:10132000FAE71DB3FEF720FF06461348006890F861
:1013300034401248005D1049096891F8351088431F
:101340000E4908550846005D40B90B48006890F802
:1013500036100B4800788843094908700648006831
:10136000C5623046FEF704FF00F040FA00BFD3E745
:10137000C9080020CA080020DC080020CE08002090
:10138000CD0800202DE9F04104460D4616461F46C3
:101390001248007810B15520BDE8F081104800785F
:1013A00008B13220F8E7B81CC82148434FF47A71DD
:1013B000B0FBF1F14FF461606043C5EB051200EB47
:1013C0008200304400EBC00202EB001001EBC008C9
:1013D0004046FFF79BFF0020DEE70000C908002021
:1013E000CA08002070B5002600F072F8FEF7BCFEB7
:1013F000064631480068401C2F4908603046FEF719
:10140000B7FE2E480078012853D12D48007820B12E
:10141000012804D0022809D103E001250BE00025B2
:1014200009E0012501202649087004E0012500207B
:101430002349087000BF00BF05B970BD214804688A
:1014400033E0FEF791FE0646E06A50B3E06A401EC4
:10145000E062E06A28BB94F8300000F0370040B149
:1014600014F8300F00F0C800207001206070303C8C
:1014700002E0002084F8310094F8300000F0080009
:1014800078B93434A0781049097808430E490870B7
:1014900020780E49085C6178084314F834190B4A27
:1014A000505464693046FEF763FE94F832003F28DA
:1014B000C7D100BFC1E70000F4080020D608002013
:1014C000EC080020E8080020CD080020CE0800200D
:1014D0007047704710B590F8342001F10B039B5C06
:1014E00090F83540A34301F10B04A35423469B5CC1
:1014F00023B98B7A90F83640A3438B7210BD00005D
:101500002DE9F0415021114800F03EF900250DE091
:10151000681C86B20D4800EB051400EB061700208E
:10152000207067600AA0E060681C85B2042DEFD3CC
:10153000064800EB051400202070606004A0E06005
:10154000024804490860BDE8F0810000C41300208F
:101550003F000000B808002030B501464A6808681E
:101560002AB9CC68606028B10025456002E01060AF
:1015700000B142608B6800255D6230BD70B5C82146
:10158000114800F001F900230FE0581C85B203EB6D
:1015900083000D4901EB800405EB850001EB80061B
:1015A000002020706660581C83B2092BEDD303EB3A
:1015B0008300054901EB800400202070606008462C
:1015C0000249086070BD0000FC120020B408002031
:1015D00000200A4908600A4908700A4908700A4947
:1015E00008700A4908700A4908600A4908600A49EF
:1015F00008600A4908600A4908707047F40800202A
:10160000C9080020CA080020D7080020D6080020FA
:10161000B0080020D8080020C4080020C00800201E
:10162000C808002000210A4A1170002004E00021AF
:10163000084A1154411CC8B20828F8D30021064AB0
:101640001170064A1170064A1160064A116070470F
:10165000CD080020CE080020CB080020CC080020B8
:10166000E4080020DC08002070B54FF47C711948B4
:1016700000F08AF84FF48071174800F085F80024D4
:1016800013E0601CC5B2C4EBC40000EB400011497C
:1016900001EB8003C5EBC50000EB400001EB8006C9
:1016A0005E610EA0D864601CC4B20B2CE9D3C4EBFD
:1016B000C40000EB4000074901EB800300205861A3
:1016C00006A0D86400200649086002480549086061
:1016D00070BD000014190020141800203F00000005
:1016E000E8080020E008002000B587B003200021B2
:1016F00080220A4BCDE90132CDE903104FF6FF708D
:101700003F23074A00900748FFF7D2FB06AA06A12D
:101710003F20FFF7D7FC07B000BD000014160020E3
:1017200010180020C119000875432F4F532D494947
:101730002049646C6500000000B587B003200021DB
:1017400080220A4BCDE90132CDE903104FF6FE703D
:101750003E23074A00900748FFF7AAFB06AA06A106
:101760003E20FFF7AFFC07B000BD000014140020BE
:1017700010160020E919000875432F4F532D4949D1
:10178000205374617400000004E0002200F8012B73
:101790004A1E91B20029F8D1704700002DE9F041AE
:1017A00078211048FFF7F0FF00240DE0601C86B29E
:1017B00004EB44000B4901EBC00506EB460001EBCE
:1017C000C0072F60601C84B2042CEFD304EB4400EC
:1017D000044901EBC0050020286008460249086062
:1017E000BDE8F081041D0020F008002010B50024A1
:1017F000FEF7BAFC044613480078F8B9124800789E
:10180000E0B900F02DF811481149097850F821008D
:10181000104908600E4800780F49097888420DD0B9
:101820000C480068806B401C0A49096888630B48B3
:101830000068401C09490860FEF7AEFC2046FEF730
:1018400097FC10BDC9080020CA0800201418002009
:10185000CC080020E4080020CB080020B0080020BD
:101860000649074A1278885C0649095C034A515CBC
:1018700001EBC001044A11707047000034340008C5
:10188000CD080020CE080020CC0800202DE9F84F1C
:1018900005460F4690469946DDE90AAB00200090C8
:1018A000FEF762FC00903F480468002C74D01834A6
:1018B00054F8040C3B4908600098FEF759FC44F8C2
:1018C000187CA576002020766076606144F814BC10
:1018D00044F80CAC44F8108C0C9824F8080C24F84C
:1018E000069C0020E077E810207705F00700E076FE
:1018F000217F01208840A077E17E01208840607729
:1019000000206060E060A0602062A0626062E0622F
:10191000206325A06063183C002606E0002104F146
:10192000500040F82610701CC6B2002EF6D020469B
:10193000FFF76CFA2046FFF717FBFEF715FC009047
:101940001A4840F825401A48006860610020A061EC
:101950001748006810B11648006884611448046094
:101960003434A07813490978084312490870207864
:101970001149085C6178084314F834190E4A505430
:101980000E480078401C0D4908700098FEF7F0FBE7
:101990000020BDE8F88FFFE70098FEF7E9FB422042
:1019A000F7E70000E00800203F00000014180020C6
:1019B000E8080020CD080020CE080020D70800202D
:1019C000002400BF00BFFEF7CFFB044605480068B7
:1019D000401C044908602046FEF7CAFBFFF771FB74
:1019E000F1E70000D8080020002400BF02E0282012
:1019F000FFF78CFC194800780028F8D018480068D8
:101A00006421B0FBF1F0164908600846006828B967
:101A1000002014490870FF20FFF722FC00BFFEF7EA
:101A2000A3FB0446104800681049086000200E49D6
:101A300008602046FEF79CFB0C48006808490968CE
:101A4000B0FBF1F0C0F1640006490870FFF772FBCB
:101A500000F00EF81420FFF759FCE0E7C80800205A
:101A6000C0080020BC080020D8080020C4080020BE
:101A70007CB5002514E069462846FFF75DFB064665
:101A800066B9094850F8254044B1012C06D0D4E984
:101A9000020100EB810060640198A064681CC5B27B
:101AA0003F2DE8D97CBD00001418002002F001038E
:101AB00043B102F002032BB102E0491E002308C02B
:101AC0000029FAD17047000029B1064AD2690243C1
:101AD000044BDA6104E0034AD2698243014BDA61C4
:101AE000704700000010024029B1064A9269024383
:101AF000044B9A6104E0034A92698243014B9A6164
:101B0000704700000010024030B500210022002480
:101B100000232D4D6D6805F00C0121B1042905D07D
:101B2000082923D105E0294D056022E0274D0560F5
:101B30001FE0254D6D6805F47012234D6D6805F4A6
:101B40008034022505EB92421CB9214D55430560B6
:101B50000BE01D4D6D6805F400351DB11C4D55435E
:101B6000056002E0194D5543056002E0174D056020
:101B700000BF00BF144D6D6805F0F0010909154D57
:101B80006B5C0568DD4045600F4D6D6805F4E061F4
:101B9000090A104D6B5C4568DD4085600A4D6D6833
:101BA00005F46051C90A0B4D6B5C4568DD40C560AA
:101BB000054D6D6805F44041890B074D6B5CC568A8
:101BC000B5FBF3F5056130BD0010024000127A004C
:101BD00000093D0099080020A908002010B5202127
:101BE0001448FEF701FE0021E22000F07FF90522F3
:101BF00011492A2000F090F90121212000F076F906
:101C00000121222000F072F92821252000F06EF930
:101C10002021312000F06AF90721262000F066F922
:101C20000F21202000F062F920210248FEF7DEFD9E
:101C300010BD0000001001409408002008B50121EB
:101C40000420FFF751FF03208DF802001020ADF8AB
:101C500000008DF8030069461048FEF731FD202092
:101C6000ADF8000010208DF8030069460B48FEF720
:101C700027FD8020ADF8000010208DF80300694694
:101C80000648FEF71DFD4020ADF8000004208DF849
:101C9000030069460148FEF713FD08BD0008014036
:101CA00008B501211820FFF71FFF03208DF802005F
:101CB00018208DF803004FF40050ADF8000069467D
:101CC0001648FEF7FDFC18208DF803004FF4004085
:101CD000ADF8000069461148FEF7F2FC10208DF8BF
:101CE00003000002ADF8000069460C48FEF7E8FC6E
:101CF00010208DF803004020ADF800006946084828
:101D0000FEF7DEFC10208DF803008002ADF8000025
:101D100069460248FEF7D4FC08BD0000000C0140F3
:101D20000010014000B585B001218803FFF7CCFE0B
:101D30004FF44040ADF800004FF48270ADF802005F
:101D40000020ADF80400ADF80600ADF808004FF42F
:101D50000070ADF80A000020ADF80C00ADF80E00E0
:101D60000720ADF810006946044800F020F8012172
:101D7000024800F005F805B000BD00000038004042
:101D800021B1028842F04002028004E002884FF64E
:101D9000BF731A40028070470246002013890B402F
:101DA0000BB1012000E0002070478181704710B521
:101DB0000022028802F441520B884C8823438C880D
:101DC0002343CC8823430C8923434C8923438C89A8
:101DD0002343CC8923431A430280838B4FF2FF7441
:101DE000234083830B8A038210BD000070B5044634
:101DF0000D4602261DB140200B49086102E040203B
:101E00000949486100BF02210848FFF7C5FF0028C3
:101E1000F9D021460548FFF7C8FF00BF301EA6F1E4
:101E20000101CEB2FAD170BD00100140003800406F
:101E300070B5044600251CE004F0800020B180212C
:101E40000E48FEF7D3FC03E080210C48FEF7CCFCE3
:101E50006006040E20210948FEF7C8FC402107480F
:101E6000FEF7B9FC044320210448FEF7BDFC681CC2
:101E7000C5B2082DE0DB204670BD0000000801401F
:101E800070B5044610210848FEF7AEFC2046FFF767
:101E9000CFFF0020FFF7CCFF054610210248FEF7D8
:101EA000A5FC284670BD0000000801402DE9F04166
:101EB00007460D46164610210B48FEF795FC38469E
:101EC000FFF7B6FF8046002405E00020FFF7B0FFD3
:101ED0002855601CC4B2B442F7DB10210248FEF75B
:101EE00085FC4046BDE8F0810008014070B505461C
:101EF0000C4610210748FEF777FC2846FFF798FFAD
:101F000006462046FFF794FF10210248FEF76EFCBC
:101F1000304670BD000801402DE9F04107460C46EF
:101F2000154610210B48FEF75FFC3846FFF780FF8F
:101F30008046002605E014F8010BFFF779FF701CBE
:101F4000C6B2AE42F7DB10210248FEF74FFC404616
:101F5000BDE8F08100080140704710B500F002F8BC
:101F600010BD00000CB500200190009033480068BF
:101F700040F480303149086000BF3048006800F408
:101F8000003000900198401C0190009818B9019809
:101F9000B0F5A06FF1D12948006800F4003010B10D
:101FA0000120009001E0002000900098012843D11A
:101FB0002348006840F01000214908600846006886
:101FC00020F0030008600846006840F00200086046
:101FD0001A48406819494860084640684860084601
:101FE000406840F4806048600846406820F47C10F7
:101FF00048600846406840F4E810486008460068B9
:1020000040F08070086000BF0C48006800F000706D
:102010000028F9D00948406820F0030007494860CB
:102020000846406840F00200486000BF034840682E
:1020300000F00C000828F9D10CBD0000001002408F
:10204000002002402DE9F041002700260024002551
:102050004FF08040008800F010062948008800F00A
:1020600010074FF08040808C26490968451A2448A3
:102070002430008824490968441A4FF08040808C3D
:10208000204908601E48243000881F49086057B165
:10209000002C02DC1D4804600FE041F27070001B50
:1020A0001A49086009E0002C02DB1848046004E0CB
:1020B00041F270702044154908601448016814A06A
:1020C00000F098FA56B1002D02DC154805600FE0CB
:1020D00041F27070401B1249086009E0002D02DBDC
:1020E0000F48056004E041F2707028440C49086014
:1020F0000B4801680BA000F07DFABDE8F0810000FC
:1021000000080040100000200C0000200800002003
:10211000454E434F4445313A2564202000000000DD
:1021200004000020454E434F4445323A25640A00DE
:10213000042808D14FF0E021096941F004014FF073
:10214000E022116107E04FF0E021096921F004016C
:102150004FF0E0221161704710B505480078012862
:1021600005D1FEF7AFFDFFF73DF9FEF7BDFD10BD50
:10217000D608002010B51348006840F0010011494E
:10218000086008464068104908400E494860084603
:1021900000680E4908400B4908600846006820F4B2
:1021A000802008600846406820F4FE0048604FF434
:1021B0001F008860FFF7D1FE4FF0006004490860FF
:1021C00010BD0000001002400000FFF8FFFFF6FE07
:1021D00008ED00E030B585B00420FFF7A9FF6846A0
:1021E000FFF792FCC8220198B0FBF2F1B1F1807FB9
:1021F00000D31DE021F07F40401E4FF0E0225061EF
:1022000050170F22002807DA13071D0E094B00F0A4
:102210000F04241F1D5503E013071C0E064B1C540E
:1022200000BF00204FF0E02290610720106100BF46
:1022300005B030BD18ED00E000E400E010B5FDF79A
:1022400093FF044608480078401C07490870204660
:10225000FDF78EFF0121054800F00AF8FFF7F2FEB6
:10226000FEF742FD10BD0000C90800200014004028
:10227000CA4302827047000070B5044620211C4802
:10228000FEF7B2FA0021E120FFF730FE05221949DE
:102290003020FFF741FE052216492A20FFF73CFEB9
:1022A00020222146A020FFF737FE01212120FFF741
:1022B0001DFE01212220FFF719FE0A212420FFF72D
:1022C00015FE28212520FFF711FE07212620FFF704
:1022D0000DFE0E212020FFF709FE20210448FEF705
:1022E00085FA202500E06D1E002DFCD170BD000098
:1022F000001001409408002070B5064620213D489A
:10230000FEF772FA0020FFF7BBFD054605F001005D
:10231000002824D07020FEF7A5FA37A13046FDF73B
:102320007DFFB8B920213348FEF75EFA38A000F0EF
:1023300061F90021E120FFF7D9FD0021E220FFF73C
:10234000D5FD7020FEF78EFA0E212020FFF7CEFD7E
:10235000012070BD30A000F04DF90020F9E7702099
:10236000FEF780FA24A0FFF787FFFF243AE007205A
:10237000FFF786FD054605F0200068B37020FEF7E4
:1023800071FAFFF72BFC3223002211461046FEF7AC
:10239000F9FF0720FFF774FD054605F0400038B14E
:1023A0004020FEF75FFA1EA000F024F90120D0E7DC
:1023B0000021E120FFF79AFD0E212020FFF796FD76
:1023C00020210C48FEF712FAFF2401E0601EC4B27F
:1023D000002CFBD10020BCE71020FEF743FA0CB91B
:1023E0000020B6E7201EA4F10101CCB2BFD100BF8E
:1023F000AFE700000010014073746172742D6D6FBF
:1024000064652D6368616E67652D5452000000009D
:102410006163746976650A00313131310A00000068
:102420007265616C6C79204F4B0A000021B1828982
:1024300042F40052828104E082894DF6FF731A4013
:102440008281704708B501210420FFF74DFB01216F
:102450000420FFF749FB03208DF802000420ADF8AB
:10246000000018208DF8030069460748FEF728F998
:102470000820ADF8000048208DF8030069460248A6
:10248000FEF71EF908BD00000008014002460020CA
:10249000B1F5007F00D100BF13880B400BB10120C4
:1024A00000E00020704700001FB501214804FFF73D
:1024B0000BFB4FF4E13000900020ADF804000C203D
:1024C000ADF80A000020ADF80800ADF80600ADF840
:1024D0000C006946034800F007F801210148FFF7A6
:1024E000A5FF1FBD004400402DE9F04786B005461A
:1024F0000E460024A24600BFA1460027B08900B1C5
:1025000000BF2F462C8A4CF6FF700440F08804432D
:102510002C82AC894EF6F3100440B0883189084310
:10252000718908430443AC81AC8A4FF6FF400440F4
:10253000B0890443AC8201A8FFF7E6FA1F4887423E
:1025400002D1DDF810A001E0DDF80CA0A88900F4AC
:10255000004040B10AEBCA0000EB0A1031684900A4
:10256000B0FBF1F807E00AEBCA0000EB0A10316893
:102570008900B0FBF1F86420B8FBF0F004012009F9
:10258000642101FB1089A88900F4004040B1322089
:1025900000EBC900B0FBF1F000F00700044308E0D5
:1025A000322000EB09106421B0FBF1F000F00F00C5
:1025B00004432C8106B0BDE8F087000000380140DC
:1025C000C1F308028280704710B5FFF76DFFFFF777
:1025D00039FF10BD00BFFEE710B5044600212046BC
:1025E000FFF704FC10BD10B5044601212046FFF79B
:1025F000FDFB10BD0FB4054B10B503A9044A0298AA
:1026000000F018F810BC5DF814FB0000F528000875
:10261000F808002002E008C8121F08C1002AFAD1F9
:1026200070477047002001E001C1121F002AFBD152
:10263000704700002DE9FF4F8DB09B460F460446C2
:10264000002606E025280BD05A460F999047641CB7
:10265000761C20780028F5D111B03046BDE8F08F07
:102660000025A8460122984900E0054314F8013FDF
:10267000203B02FA03F00842F7D120782E2817D128
:1026800014F8010F45F004052A280ED06FF02F0230
:102690002078A0F1300109290AD808EB880102EB63
:1026A000410100EB0108641CF2E757F8048B641C3D
:1026B00020786C280DD004DC4C2812D06A2811D167
:1026C00004E074280DD07A280CD10AE045F40015F6
:1026D00007E0617845F48015814202D1641C05F55C
:1026E0008015641C2278692A45D008DC002AB3D002
:1026F000582A69D0632A10D0642A08D13BE0702A96
:1027000067D0732A13D0752A5CD0782A5CD0104623
:102710005A460F999047761CD3E017F8040B8DF8B2
:10272000000000208DF80100E946012003E057F881
:10273000049B4FF0FF3069074FF0000501D40AE019
:102740006D1C45450DDA8542FADB19F805100029A4
:10275000F6D106E06D1C8542FCDB19F80510002956
:10276000F8D12E4404E019F8010B5A460F9990470E
:102770006D1EF8D2A5E00A200021CDE90801C5F3BD
:10278000025002280DD001CFC117031E71F10003C2
:102790000DDA4FF0000CD0EB0C006CEB01012D2397
:1027A00008E0FF1D27F00707F7E80201EDE72B051A
:1027B00004D52B238DF8283001233BE0EB0739D0DB
:1027C0002023F7E70A2000E010200021CDE90801CE
:1027D00007E01020002145F00405CDE908014FF085
:1027E0000808C5F3025002280FD001CF00214FF096
:1027F000000A2B071FD5702A0DD0DDE908C38CF025
:10280000100C5CEA030C0CD015E0FF1D27F0070745
:10281000F7E80201EBE740228DF828204FF0010A8B
:102820000BE050EA010306D030238DF828308DF8F4
:10283000292002239A46582A04D024A20DF1200907
:102840000B9209E026A2F9E7DDE90823FDF7F4FC85
:102850000B9B9B5C09F8013D50EA0102F4D1ADEB02
:10286000090020300890680701D44FF0010808994A
:10287000884502DDA8EB010000E00020804600252D
:1028800006E00AA85A46405D0F9990476D1C761CD9
:102890005545F6DB04E030205A460F999047761CE8
:1028A000B8F10001A8F10108F5DC05E019F8010B09
:1028B0005A460F999047761C0899481E089000299F
:1028C000F4DC641CC5E60000092801003031323315
:1028D000343536373839616263646566000000005C
:1028E0003031323334353637383941424344454646
:1028F0000000000070B504460D46E1B20548FFF740
:102900005FFE00BF80210348FFF7C0FD0028F9D01B
:10291000204670BD004400408AB000BFFFF75EF95A
:102920000720FFF7ADFA04460121E220FFF7DEFAA7
:102930001720FFF7A5FA064621462BA0FFF75AFEFF
:1029400031462DA0FFF756FE30A0FFF753FE04F0EE
:102950004000002821D031A0FFF74CFE214636A0D0
:10296000FFF748FE4020FDF77DFF054638A0FFF742
:1029700041FE294630A0FFF73DFE202201A961203B
:10298000FFF794FA01A936A0FFF734FE4020FDF7C7
:1029900069FF37A0FFF72EFEC0E739A0FFF72AFE38
:1029A00003E00720FFF76CFA044604F0400000281B
:1029B000F7D039A0FFF71EFE202201A96120FFF702
:1029C00075FA01A926A0FFF715FE01A8FFF794FCF0
:1029D000012804D136A0FFF70DFE00BFFEE73AA0A4
:1029E000FFF708FE9AE700005354415455533A202C
:1029F000307825780A0000004649464F2D5354414F
:102A00005455533A20307825780A00007374617267
:102A10007420726563656976650A000053756363A7
:102A200065737366756C6C7920726563656976652C
:102A3000206461746109000063757272656E7420B0
:102A40005354415455533A307825640A000000002D
:102A5000636C65617220666C61672E2E2E09000022
:102A60004D657373616765733A25730A0A00000048
:102A7000B1EAD6BEC7E5B3FECDEAB3C90A0000008D
:102A8000D4DDCEB4BDD3CAD5B5BDCAFDBEDD202CC4
:102A9000B5C8B4FDD6D00A00BDD3CAD5B5BDCAFDF0
:102AA000BEDD2C20C6A5C5E4D6D02E2E0A0000001F
:102AB000C6A5C5E4B3C9B9A620C4A3CABDC7D0BBC7
:102AC000BBCDEAB3C90A0000C4A3CABDC7D0BBBB13
:102AD000CAA7B0DC0A00000012E00820094908611A
:102AE0005023002211461046FEF74CFC08200549F1
:102AF00048614FF4C873002211461046FEF742FCAD
:102B0000EBE700000010014014E004200A490860CF
:102B10004FF47A73002211461046FEF733FC04206E
:102B20000549091D08604FF47A73002211461046CA
:102B3000FEF728FCE9E70000100C014010B54FF447
:102B4000A060FDF73FFFFEF7A5F80A23044A002125
:102B50000448FEF75DF9FEF70FF9002010BD0000F4
:102B6000F80A0020912B0008B0F5E15F01DB41F687
:102B70001F40014908807047342C0140B0F5E15FE7
:102B800001DB41F61F40014908807047382C0140A5
:102B900070B50446002500BFFDF7E6FA0546FDF7CF
:102BA00029FEFFF717FBFEF70BF907230E4A00215A
:102BB0000E48FEF72DF906230D4A00210D48FEF7B9
:102BC00027F905230C4A00210C48FEF721F90423BC
:102BD0000B4A00210B48FEF71BF9FF20FEF7C6F950
:102BE0002846FDF7C5FA70BDF80C0020D92A000868
:102BF000F80E0020092B0008F81000201929000801
:102C0000F8120020CD05000810B5FFF749F8FFF7CE
:102C100089F8FFF713F8FDF763FE10BD0000000010
:102C200000000000002F0000000007000700001453
:102C30007F147F1400242A7F2A1200626408132361
:102C400000364955225000000503000000001C22F8
:102C50004100000041221C000014083E0814000836
:102C6000083E0808000000A06000000808080808E6
:102C7000000060600000002010080402003E51497E
:102C8000453E0000427F400000426151494600211C
:102C900041454B31001814127F1000274545453936
:102CA000003C4A4949300001710905030036494991
:102CB000493600064949291E00003636000000004A
:102CC0005636000000081422410000141414141495
:102CD000000041221408000201510906003249593E
:102CE000513E007C1211127C007F49494936003E5A
:102CF00041414122007F4141221C007F4949494115
:102D0000007F09090901003E4149497A007F08080E
:102D1000087F0000417F4100002040413F01007FCB
:102D200008142241007F40404040007F020C027F97
:102D3000007F0408107F003E4141413E007F0909A9
:102D40000906003E4151215E007F091929460046CF
:102D5000494949310001017F0101003F4040403FA6
:102D6000001F2040201F003F4038403F00631408F0
:102D700014630007087008070061514945430000CB
:102D80007F41410000552A552A55000041417F00EE
:102D900000040201020400404040404000000102E3
:102DA0000400002054545478007F484444380038CC
:102DB0004444442000384444487F00385454541854
:102DC00000087E0901020018A4A4A47C007F080466
:102DD00004780000447D4000004080847D00007F36
:102DE000102844000000417F4000007C0418047853
:102DF000007C0804047800384444443800FC24244F
:102E000024180018242418FC007C08040408004836
:102E10005454542000043F444020003C4040207C57
:102E2000001C2040201C003C4030403C0044281046
:102E30002844001CA0A0A07C004464544C441414FA
:102E40001414141400000000000000000000000032
:102E500000000000000000F8000000000000003347
:102E60003000000000100C06100C060000000000EE
:102E70000000000040C07840C0784000043F0404D7
:102E80003F040400007088FC08300000001820FF98
:102E9000211E0000F008F000E018000000211C03D3
:102EA0001E211E0000F00888700000001E2123244F
:102EB0001927211010160E0000000000000000006D
:102EC00000000000000000E01804020000000007FD
:102ED0001820400000020418E00000000040201804
:102EE00007000000404080F0804040000202010FD7
:102EF00001020200000000F0000000000101011FBB
:102F000001010100000000000000000080B070001E
:102F100000000000000000000000000000010101AE
:102F2000010101010000000000000000003030003D
:102F30000000000000000000806018040060180617
:102F40000100000000E010080810E000000F102051
:102F500020100F00001010F8000000000020203F9B
:102F60002020000000700808088870000030282425
:102F700022213000003008888848300000182020C6
:102F800020110E000000C02010F8000000070424EB
:102F9000243F240000F80888880808000019212030
:102FA00020110E0000E0108888180000000F11208A
:102FB00020110E0000380808C83808000000003F43
:102FC000000000000070880808887000001C2221A2
:102FD00021221C0000E010080810E000000031224F
:102FE00022110F00000000C0C000000000000030EF
:102FF0003000000000000080000000000000806041
:1030000000000000000080402010080000010204C1
:1030100008102000404040404040400004040404A8
:103020000404040000081020408000000020100864
:1030300004020100007048080808F0000000003099
:1030400036010000C030C828E810E0000718272427
:1030500023140B000000C038E0000000203C2302D5
:103060000227382008F8888888700000203F202038
:1030700020110E00C030080808083800071820206A
:103080002010080008F808080810E000203F202061
:1030900020100F0008F88888E8081000203F202042
:1030A0002320180008F88888E8081000203F200036
:1030B00003000000C030080808380000071820206E
:1030C000221E020008F808000008F808203F21012D
:1030D00001213F20000808F8080800000020203FD8
:1030E0002020000000000808F8080800C080808048
:1030F0007F00000008F888C028180800203F200141
:103100002638200008F8080000000000203F20209A
:103110002020300008F8F800F8F80800203F003FB1
:10312000003F200008F830C00008F808203F2000C9
:1031300007183F00E01008080810E0000F102020DA
:1031400020100F0008F808080808F000203F2101AF
:1031500001010000E01008080810E0000F18242406
:1031600038504F0008F8888888887000203F200079
:10317000030C30200070880808083800003820212F
:1031800021221C00180808F8080818000000203F39
:103190002000000008F808000008F808001F2020A0
:1031A00020201F000878880000C838080000073871
:1031B0000E010000F80800F80008F800033C0700C2
:1031C000073C0300081868808068180820302C032A
:1031D000032C30200838C800C83808000000203F01
:1031E0002000000010080808C838080020382621F0
:1031F00020201800000000FE020202000000007FF4
:1032000040404000000C30C0000000000000000101
:103210000638C00000020202FE00000000404040EC
:103220007F00000000000402020204000000000011
:10323000000000000000000000000000808080808E
:103240008080808000020204000000000000000076
:10325000000000000000808080800000001924220F
:1032600022223F2008F8008080000000003F11204B
:1032700020110E000000008080800000000E112050
:1032800020201100000000808088F800000E11202E
:1032900020103F200000808080800000001F22223C
:1032A00022221300008080F0888888180020203FA8
:1032B000202000000000808080808000006B9494BB
:1032C0009493600008F8008080800000203F210077
:1032D00000203F2000809898000000000020203F40
:1032E00020200000000000809898000000C080802E
:1032F000807F000008F8000080808000203F2402CA
:103300002D302000000808F8000000000020203FB9
:10331000202000008080808080808000203F20006E
:103320003F20003F8080008080800000203F2100FF
:1033300000203F200000808080800000001F2020AF
:1033400020201F00808000808000000080FFA120DE
:1033500020110E000000008080808000000E1120EF
:1033600020A0FF80808080008080800020203F217E
:103370002000010000008080808080000033242431
:1033800024241900008080E0808000000000001FDD
:10339000202000008080000000808000001F20208E
:1033A00020103F20808080000080808000010E304F
:1033B0000806010080800080008080800F300C03B0
:1033C0000C300F0000808000808080000020312EB3
:1033D0000E312000808080000080808080818E708F
:1033E0001806010000808080808080000021302C41
:1033F0002221300000000000807C0202000000005A
:10340000003F404000000000FF00000000000000FE
:10341000FF0000000002027C800000000040403FEE
:103420000000000000060101020204040000000088
:103430000000000000000100020001000300010084
:10344000020001000400010002000100030001006D
:10345000020001000500010002000100030001005C
:10346000020001000400010002000100030001004D
:10347000020001000600010002000100030001003B
:10348000020001000400010002000100030001002D
:10349000020001000500010002000100030001001C
:1034A000020001000400010002000100030001000D
:1034B00002000100070001000200010003000100FA
:1034C00002000100040001000200010003000100ED
:1034D00002000100050001000200010003000100DC
:1034E00002000100040001000200010003000100CD
:1034F00002000100060001000200010003000100BB
:1035000002000100040001000200010003000100AC
:10351000020001000500010002000100030001009B
:10352000020001000400010002000100030001008C
:10353000020001005435000800000020FC080000D3
:10354000FE0200082C3A0008FC080020841C000041
:1035500024260008000410701700012004FE929237
:1035600003201700424AD26A46C00040C444443F88
:103570002424240040807F00012113C03826100736
:10358000FF00004020180E301A80814020100C03EC
:1035900000030C1020408080002424A4FEA32200FD
:1035A00022CC24200A0000080601FF0001040110BB
:1035B00011FF02020200101010FF10900888888886
:1035C000FF0400149408000444827F01808040437B
:1035D0002C102846818000FF01100F7F7FBFFFBFA6
:1035E000DF9F7FDF9FFFDF7F3F1001122420153F09
:1035F0003FBF3F3F7F7F7F3F1F1F0F01C34101211F
:1036000089C1F13B312E022B7F71006521BFBFFFC5
:103610000F0F9FBF0F4F4727270FA1419147240E40
:10362000000707060026050000040800001001003E
:10363000020401010347071F3FBF9FFF5F1F1F1FBA
:10364000DF0C8003002000F0F8F878783808144E7A
:103650003C4E0E0D4D0706464E50052742C3C6C2CE
:103660008A899D09090B174F47A7F79FA7CFF3FB3F
:10367000FDF8E811FE6FDF72A46CDEE894D388A435
:10368000060004202D120802C013209401210B070C
:10369000DFFFFF3F3FCC8E400200120224041B1EBE
:1036A00002070000091D959FD4EF7FC8C9F20517D6
:1036B0002F7FD5F353CB570FDFDF1328365F2A7FD9
:1036C000ED8BDAE0F0FAFEFEC9AA4A884820A0A0F5
:1036D00010A02480C020D0404060008000106148CD
:1036E000029000809810008070BC63616500042522
:1036F0004208A4BA60D20020172080808008C1F858
:10370000980FF69FFFEFE810E3FDFBFDF8F6F6F2E9
:10371000F1F5EEF6EDF3FFF7FD9404FDFFFE0A5719
:10372000FEFE31102DFCFAFDF8F4F8E1E0E8F2F4C9
:10373000FDFEF8A5E4DAFB2B738D4C2090E7FEF339
:10374000FDE5F8C4D4E0E0E4E9A6A492CC87B30098
:10375000907D30070002A0C4E8EC3908074DF0E086
:10376000D9979EBC9BC00BFDF8FDF7DAFFB7E9FFC8
:103770005F18000A2DF9FAF4F1FEFCF9FEFE50186C
:103780000A9FCFCF8FDF8F8FFF8F84100BBF9F9F3C
:10379000BFFFDFFF9F9F9F0419670138A6113C4AB6
:1037A000BFD91ADFDB215729E4115F211612DF612F
:1037B00032DFB5FEDF08037D81030D25A8030D254B
:1037C000CF03040B1E3F3F3F1F3F9F9F1F1F3F60C4
:1037D000901CFCD00728571AB22CD43860C14387FC
:1037E0001F07072B835BB7EF430323DB63AE114F48
:1037F000100A1F1F2F3B7740D2653B0AB1580C1DA2
:10380000227FD773832303E73FE70BD303071F0F01
:103810004381E850B844BD52255E00A5FA0B041C54
:1038200020CF46D6A6C400D5018213060ABD202AA1
:1038300050C1820A1D372C70A2C58D8B1F2F3F5F90
:10384000730410163F3E3C38185818040280E5FFF8
:103850008000022C1838583C3EE3125FE50C1E1D18
:10386000170F9B41C2705C3F114F0280C42960BAA0
:10387000041F02858A0140C226C666C7DF8504048C
:1038800067163FDFC3F9757D1D3B73DAFB7B429DF5
:10389000F5FEF9F2F4D4E4ECD8D1E3DCA1A2DCA08B
:1038A000E4C8A1CBA2A0C5D0A2C0D0C270E070B0C5
:1038B000B82C4E1F0315071E3CB8306870E0C0E2FC
:1038C000C0A2A4C142D5A1C5A9D0A4D1D492F1C9A6
:1038D000B9E0E9DCF0E6F8F3FCFAEE853B79FBFBB6
:1038E00053393D3DF9D3C7BF83086A1CFEFDF9EB90
:1038F000C3BFBD9ABCCCCDDFAFDDA669BF1FEF1F34
:103900005727271F3387AB8B6B052D4B1225A385BC
:10391000A28513854305032307060E1E1A347AE495
:10392000E880F8E23C1A0D0F26060B03134701430B
:10393000852DC18595232D035D434D5B83BB073BDF
:1039400027274F9F5F3F7B41D69FDFEECCBC5CBB00
:10395000AF9FE3F9FC01085D21FBE5636E61258003
:1039600005D001E0C8B2281C470185A820D8EA3C50
:103970001B05C3A1DAF0FCF4FCFEF8FEF87E7C1413
:103980001C1C28204001AFDF01409034081C1C3A69
:103990007CFEFCFAFCFCFCF4ECF8A123861B14FE74
:1039A000D0A428C10312461C3068D1A190418220C6
:1039B000636563E5FBAB9C1C3F17E012E42D58A741
:1039C0003C032E8184F0F8E0CAD0C2DCE3FEC3C021
:1039D0008CC2EDBB041C04FCF8F8F9051008F4CC0B
:1039E000174116FCE80B8FFCF80A040C1E8EF7EF4B
:1039F000CA94C0C2E5FFD4C3CCC0E1F8F0C08306CE
:103A00001D023E212ED824D8833F7F69073C053014
:103A1000170217410620050102030404000A4C06A0
:0C3A20000708090204060800010000006D
:0400000508000131BD
:00000001FF
