:020000040800F2
:100000003804002001010008E90400088504000804
:10001000E50400082B020008610D00080000000044
:100020000000000000000000000000008908000837
:10003000C102000800000000790500089D090008C1
:100040001B0100081B0100081B0100081B01000820
:100050001B0100081B0100081B0100081B01000810
:100060001B0100081B0100081B0100081B01000800
:100070001B0100081B0100081B0100081B010008F0
:100080001B0100081B0100081B0100081B010008E0
:100090001B0100081B0100081B0100081B010008D0
:1000A0001B0100081B0100081B0100081B010008C0
:1000B0001B0100081B0100081B0100081B010008B0
:1000C0001B0100081B0100081B0100081B010008A0
:1000D0001B0100081B0100081B0100081B01000890
:1000E0001B0100081B0100081B010008DFF80CD0F1
:1000F00000F06AF800480047891000083804002022
:100100000648804706480047FEE7FEE7FEE7FEE7B1
:10011000FEE7FEE7FEE7FEE7FEE7FEE7A1090008CF
:10012000ED00000840EA01039B0703D009E008C97D
:10013000121F08C0042AFAD203E011F8013B00F8AC
:10014000013B521EF9D2704710B5002200E0521C4C
:10015000835C8C5CA34201D1002BF8D1D8B2E1B210
:10016000401A10BD2DE9F05F0546002092469B46DF
:1001700088460646814640241BE0284641464746BD
:10018000224600F042F853465A46C01A914110D315
:1001900011461846224600F029F82D1A67EB01088F
:1001A0004F4622460120002100F020F817EB0009FD
:1001B0004E41201EA4F10104DFDC484631462A46A8
:1001C0004346BDE8F09F0000064C074D06E0E0689E
:1001D00040F0010394E8070098471034AC42F6D38E
:1001E000FFF788FF7412000894120008202A04DB2D
:1001F000203A00FA02F1002070479140C2F120033A
:1002000020FA03F3194390407047202A04DB203A78
:1002100021FA02F00021704721FA02F3D040C2F126
:100220002002914008431946704700BFFEE70000D6
:100230001CB514A103C9CDE9000100F057F905224E
:100240006946302000F000FB05226946102000F0CE
:10025000C5FA002406E01DF80400A52800D003E03C
:10026000601CC4B2052CF6DB00BF052C04D007A02F
:1002700000F078FD01201CBD0AA000F073FD0020F5
:10028000F9E70000A5A5A5A5A50000004E5246323D
:10029000344C303120636865636B206572726F7215
:1002A000210A00004E524632344C303120636865DA
:1002B000636B207375636375737366756C210A00D5
:1002C0007047000010B56FF0040000F053FB0A48BF
:1002D00000680A49B0FBF1F0094908700846007847
:1002E00000EB4001C1EBC0104FF6FF7101EAC00006
:1002F0000449088010BD00000000002000127A00B0
:10030000280000202A0000200146114A12784A43A2
:100310004FF0E0235A6100229A611A46126942F0B6
:1003200001021A6100BF4FF0E022106900F00102E3
:100330001AB100F48032002AF5D04FF0E0221269A1
:1003400022F001024FF0E0231A6100229A61704707
:10035000280000202DE9F04102460025002600205B
:1003600000230024002791F803C00CF00F0591F83A
:1003700003C00CF0100CBCF1000F03D091F802C0C8
:100380004CEA050591F800C0BCF1000F31D01468AB
:1003900000202BE04FF0010C0CFA00F3B1F800C084
:1003A0000CEA03069E4220D183004FF00F0C0CFA9A
:1003B00003F7BC4305FA03FC4CEA040491F803C0BC
:1003C000BCF1280F06D14FF0010C0CFA00FCC2F86A
:1003D00014C00AE091F803C0BCF1480F05D14FF0FA
:1003E000010C0CFA00FCC2F810C0401C0828D1D344
:1003F0001460B1F800C0BCF1FF0F34DD5468002078
:100400002EE000F1080C4FF0010808FA0CF3B1F8E7
:1004100000C00CEA03069E4221D183004FF00F0C6E
:100420000CFA03F7BC4305FA03FC4CEA040491F808
:1004300003C0BCF1280F05D100F1080C08FA0CF834
:10044000C2F8148091F803C0BCF1480F07D100F145
:10045000080C4FF0010808FA0CF8C2F81080401C94
:100460000828CED35460BDE8F0810246002093688E
:100470000B400BB1012000E0002070474161704744
:100480000161704700BFFEE770B5044600250221F8
:100490000848FFF7F3FF04F070040021FF2000F08C
:1004A000BDF9054644EA0501272000F0B7F90546E5
:1004B000284670BD000C014008B50121082000F05D
:1004C0006DF84FF48050ADF8000010208DF8030057
:1004D00003208DF8020069460148FFF73BFF08BD85
:1004E000000C014000BFFEE77047000010B510216E
:1004F0000D48FFF7C5FF02210C48FFF7BFFF202181
:100500000948FFF7BBFF01210848FFF7B9FF70203A
:10051000FFF7BAFF0021E22000F080F90021E1207E
:1005200000F07CF910BD000000080140000C014003
:1005300008B50121082000F031F803208DF80200F1
:1005400010208DF803000220ADF80000694609482C
:10055000FFF700FF02210748FFF792FF0120ADF8E7
:10056000000004208DF8030069460248FFF7F2FE00
:1005700008BD0000000C01407047000029B1064A88
:10058000D2690243044BDA6104E0034AD269824330
:10059000014BDA61704700000010024029B1064AA1
:1005A00092690243044B9A6104E0034A92698243D0
:1005B000014B9A61704700000010024030B50021E5
:1005C0000022002400232D4D6D6805F00C0121B19F
:1005D000042905D0082923D105E0294D056022E032
:1005E000274D05601FE0254D6D6805F47012234D01
:1005F0006D6805F48034022505EB92421CB9214D4B
:10060000554305600BE01D4D6D6805F400351DB1C7
:100610001C4D5543056002E0194D5543056002E04D
:10062000174D056000BF00BF144D6D6805F0F00167
:100630000909154D6B5C0568DD4045600F4D6D681F
:1006400005F4E061090A104D6B5C4568DD4085608A
:100650000A4D6D6805F46051C90A0B4D6B5C456825
:10066000DD40C560054D6D6805F44041890B074DBF
:100670006B5CC568B5FBF3F5056130BD0010024049
:1006800000127A0000093D00140000202400002020
:1006900010B502211448FFF7F1FE0021E22000F01E
:1006A000BDF8052211492A2000F0CEF801212120B1
:1006B00000F0B4F80121222000F0B0F82821252014
:1006C00000F0ACF82021312000F0A8F80721262006
:1006D00000F0A4F80F21202000F0A0F80221024829
:1006E000FFF7CEFE10BD0000000C01402C000020E2
:1006F00010B5FFF71DFF00F001F810BD08B501218E
:100700000420FFF74BFF03208DF802001020ADF806
:1007100000008DF8030069461048FFF71BFE2020FB
:10072000ADF8000010208DF8030069460B48FFF774
:1007300011FE8020ADF8000010208DF803006946FE
:100740000648FFF707FE4020ADF8000004208DF8B2
:10075000030069460148FFF7FDFD08BD00080140A0
:1007600070B5044600251CE004F0800020B1802113
:100770000E48FFF785FE03E080210C48FFF77EFE60
:100780006006040E20210948FFF77AFE4021074841
:10079000FFF76BFE044320210448FFF76FFE681C3F
:1007A000C5B2082DE0DB204670BD00000008014006
:1007B00070B5044610210848FFF760FE2046FFF799
:1007C000CFFF0020FFF7CCFF054610210248FFF7BE
:1007D00057FE284670BD0000000801402DE9F04199
:1007E00007460D46164610210B48FFF747FE3846D0
:1007F000FFF7B6FF8046002405E00020FFF7B0FFBA
:100800002855601CC4B2B442F7DB10210248FFF740
:1008100037FE4046BDE8F0810008014070B505464E
:100820000C4610210748FFF729FE2846FFF798FFDE
:1008300006462046FFF794FF10210248FFF720FEEE
:10084000304670BD000801402DE9F04107460C46D6
:10085000154610210B48FFF711FE3846FFF780FFC1
:100860008046002605E014F8010BFFF779FF701CA5
:10087000C6B2AE42F7DB10210248FFF701FE404648
:10088000BDE8F08100080140704710B500F002F8A3
:1008900010BD00000CB500200190009033480068A6
:1008A00040F480303149086000BF3048006800F4EF
:1008B000003000900198401C0190009818B90198F0
:1008C000B0F5A06FF1D12948006800F4003010B1F4
:1008D0000120009001E0002000900098012843D101
:1008E0002348006840F0100021490860084600686D
:1008F00020F0030008600846006840F0020008602D
:100900001A484068194948600846406848600846E7
:10091000406840F4806048600846406820F47C10DD
:1009200048600846406840F4E8104860084600689F
:1009300040F08070086000BF0C48006800F0007054
:100940000028F9D00948406820F0030007494860B2
:100950000846406840F00200486000BF0348406815
:1009600000F00C000828F9D10CBD00000010024076
:1009700000200240042808D14FF0E021096941F02D
:1009800004014FF0E022116107E04FF0E021096916
:1009900021F004014FF0E022116170477047000020
:1009A00010B51348006840F001001149086008467E
:1009B0004068104908400E494860084600680E49E2
:1009C00008400B4908600846006820F48020086051
:1009D0000846406820F4FE0048604FF41F0088601D
:1009E000FFF753FF4FF000600449086010BD00009E
:1009F000001002400000FFF8FFFFF6FE08ED00E0E7
:100A000010B5044602211B48FFF738FD0021E12004
:100A1000FFF704FF052218493020FFF715FF0522D4
:100A200015492A20FFF710FF20222146A020FFF7BA
:100A30000BFF01212120FFF7F1FE01212220FFF70A
:100A4000EDFE0A212420FFF7E9FE28212520FFF7EB
:100A5000E5FE07212620FFF7E1FE0E212020FFF70B
:100A6000DDFE02210348FFF70BFD0D20FFF74CFCD4
:100A700010BD0000000C01402C00002070B506469F
:100A800002212F48FFF7FAFC0020FFF791FE0446F1
:100A900004F00100002820D07020FFF7F5FC29A108
:100AA0003046FFF751FB98B902212548FFF7E6FCD5
:100AB0002AA000F057F90021E120FFF7AFFE002146
:100AC000E220FFF7ABFE28A0FFF79AFF012070BDE0
:100AD00029A000F047F90020F9E77020FFF7D4FCC7
:100AE00018A0FFF78DFF1720FFF762FE044621468E
:100AF00023A000F037F9FF251AE00720FFF758FE82
:100B00000446214623A000F02DF904F0200048B14E
:100B10007020FFF7B9FC24A000F024F9FFF7B8FD1E
:100B20000120D4E75020FFF7AFFC0DB90020CEE73D
:100B3000281EA5F10101CDB2DFD100BFC7E700003B
:100B4000000C014073746172742D6D6F64652D63C8
:100B500068616E67652D545200000000616374691E
:100B60007665200A000000006D6F64652D63686182
:100B70006E67652D4F4B0000313131310A000000A6
:100B800073656E6420434F4E4649473A3078257866
:100B90002000000073746174757320737461747540
:100BA000733A307825782000616374697665207324
:100BB000746D380A0000000021B1828942F40052AD
:100BC000828104E082894DF6FF731A40828170476A
:100BD00008B501210420FFF7E1FC01210420FFF703
:100BE000DDFC03208DF802000420ADF80000182081
:100BF0008DF8030069460748FFF7ACFB0820ADF805
:100C0000000048208DF8030069460248FFF7A2FB68
:100C100008BD00000008014002460020B1F5007F39
:100C200000D100BF13880B400BB1012000E0002071
:100C3000704700001FB501214804FFF79FFC4FF4E7
:100C4000E13000900020ADF804000C20ADF80A005F
:100C50000020ADF80800ADF80600ADF80C006946BC
:100C6000034800F007F801210148FFF7A5FF1FBD69
:100C7000004400402DE9F04786B005460E460024AA
:100C8000A24600BFA1460027B08900B100BF2F4691
:100C90002C8A4CF6FF700440F08804432C82AC8907
:100CA0004EF6F3100440B088318908437189084337
:100CB0000443AC81AC8A4FF6FF400440B089044342
:100CC000AC8201A8FFF77AFC1F48874202D1DDF809
:100CD00010A001E0DDF80CA0A88900F4004040B1AC
:100CE0000AEBCA0000EB0A1031684900B0FBF1F8CA
:100CF00007E00AEBCA0000EB0A1031688900B0FB7C
:100D0000F1F86420B8FBF0F004012009642101FB34
:100D10001089A88900F4004040B1322000EBC900DE
:100D2000B0FBF1F000F00700044308E0322000EBD4
:100D300009106421B0FBF1F000F00F0004432C8196
:100D400006B0BDE8F087000000380140C1F308029A
:100D50008280704710B5FFF76DFFFFF739FF10BDB8
:100D600000BFFEE70FB4054B10B503A9044A029873
:100D700000F018F810BC5DF814FB000065100008C6
:100D80003400002002E008C8121F08C1002AFAD16E
:100D900070477047002001E001C1121F002AFBD1FB
:100DA000704700002DE9FF4F8DB09B460F4604466B
:100DB000002606E025280BD05A460F999047641C60
:100DC000761C20780028F5D111B03046BDE8F08FB0
:100DD0000025A8460122984900E0054314F8013F88
:100DE000203B02FA03F00842F7D120782E2817D1D1
:100DF00014F8010F45F004052A280ED06FF02F02D9
:100E00002078A0F1300109290AD808EB880102EB0B
:100E1000410100EB0108641CF2E757F8048B641CE5
:100E200020786C280DD004DC4C2812D06A2811D10F
:100E300004E074280DD07A280CD10AE045F400159E
:100E400007E0617845F48015814202D1641C05F504
:100E50008015641C2278692A45D008DC002AB3D0AA
:100E6000582A69D0632A10D0642A08D13BE0702A3E
:100E700067D0732A13D0752A5CD0782A5CD01046CC
:100E80005A460F999047761CD3E017F8040B8DF85B
:100E9000000000208DF80100E946012003E057F82A
:100EA000049B4FF0FF3069074FF0000501D40AE0C2
:100EB0006D1C45450DDA8542FADB19F8051000294D
:100EC000F6D106E06D1C8542FCDB19F805100029FF
:100ED000F8D12E4404E019F8010B5A460F999047B7
:100EE0006D1EF8D2A5E00A200021CDE90801C5F366
:100EF000025002280DD001CFC117031E71F100036B
:100F00000DDA4FF0000CD0EB0C006CEB01012D233F
:100F100008E0FF1D27F00707F7E80201EDE72B05C2
:100F200004D52B238DF8283001233BE0EB0739D083
:100F30002023F7E70A2000E010200021CDE9080176
:100F400007E01020002145F00405CDE908014FF02D
:100F50000808C5F3025002280FD001CF00214FF03E
:100F6000000A2B071FD5702A0DD0DDE908C38CF0CD
:100F7000100C5CEA030C0CD015E0FF1D27F00707EE
:100F8000F7E80201EBE740228DF828204FF0010A34
:100F90000BE050EA010306D030238DF828308DF89D
:100FA000292002239A46582A04D024A20DF12009B0
:100FB0000B9209E026A2F9E7DDE90823FFF7D2F852
:100FC0000B9B9B5C09F8013D50EA0102F4D1ADEBAB
:100FD000090020300890680701D44FF001080899F3
:100FE000884502DDA8EB010000E0002080460025D6
:100FF00006E00AA85A46405D0F9990476D1C761C82
:101000005545F6DB04E030205A460F999047761C90
:10101000B8F10001A8F10108F5DC05E019F8010BB1
:101020005A460F999047761C0899481E0890002947
:10103000F4DC641CC5E600000928010030313233BD
:101040003435363738396162636465660000000004
:1010500030313233343536373839414243444546EE
:101060000000000070B504460D46E1B20548FFF7E8
:101070006DFE00BF80210348FFF7CEFD0028F9D0A8
:10108000204670BD0044004088B01C2235A101A854
:10109000FFF748F8FFF710FAFFF75CFEFFF712F9C9
:1010A000FFF726FBFFF722FAFFF7C2F834A0FFF79D
:1010B000A7FC55E03848006880F480503649086045
:1010C0000720FFF775FB04461720FFF771FB064664
:1010D000214632A0FFF746FE314634A0FFF742FE1C
:1010E00004F0300000282FD004F0200018B134A004
:1010F000FFF738FE02E038A0FFF734FE21463BA0A0
:10110000FFF730FE5020FFF7BFF905463CA0FFF780
:1011100029FE294635A0FFF725FE3020FFF7B4F958
:101120003BA0FFF71FFE3FA0FFF71CFE13A0FFF739
:10113000A5FC012804D141A0FFF714FE00BFFEE783
:1011400042A0FFF70FFE0BE044A0FFF70BFE03E009
:101150000720FFF72DFB044604F030000028F7D0ED
:10116000A8E7000048656C6C6F20475943207468FD
:101170006973206973206120746573740000000036
:1011800073746172742D6D6F64652D6368616E6731
:10119000652D5452000000000C0C01405354415482
:1011A00055533A20307825780A0000004649464FCA
:1011B0002D5354415455533A20307825780A000075
:1011C0005375636365737366756C6C792073656EB4
:1011D00064206461746109004572726F72206162FB
:1011E0006F7574204D41585F5458090063757272D1
:1011F000656E74205354415455533A25640A0000D7
:10120000636C65617220666C61672E2E2E0900008A
:10121000B1EAD6BECEBBC7E5B3FECDEAB3C90A0A72
:1012200000000000D5FDD4DAB3A2CAD4C4A3CABD5D
:10123000C7D0BBBB2E2E2E0A00000000C4A3CABD1F
:10124000C7D0BBBBB3C9B9A60A000000C4A3CABDBE
:10125000C7D0BBBBCAA7B0DC0A0A0000CAFDBEDD0E
:10126000B7A2CBCDCEB4CDEAB3C92CB5C8B4FDD6A8
:10127000D00A00009412000800000020380000008E
:10128000840D0008CC120008380000200004000083
:10129000940D000800A24A040000000000000000B5
:1012A000010203040607080900000000010203040C
:1012B00001020304060708090204060800000000F2
:0C12C000301702170200000000000000C0
:04000005080000ED02
:00000001FF
